{
  "contractName": "FreelanceCampaign",
  "abi": [
    {
      "constant": true,
      "inputs": [
        {
          "name": "",
          "type": "address"
        }
      ],
      "name": "approvers",
      "outputs": [
        {
          "name": "",
          "type": "bool"
        }
      ],
      "payable": false,
      "stateMutability": "view",
      "type": "function",
      "signature": "0x0a144391"
    },
    {
      "constant": true,
      "inputs": [
        {
          "name": "",
          "type": "uint256"
        }
      ],
      "name": "requests",
      "outputs": [
        {
          "name": "ipfsreference",
          "type": "string"
        },
        {
          "name": "valueRequested",
          "type": "uint256"
        },
        {
          "name": "ownerToPay",
          "type": "address"
        },
        {
          "name": "complete",
          "type": "bool"
        }
      ],
      "payable": false,
      "stateMutability": "view",
      "type": "function",
      "signature": "0x81d12c58"
    },
    {
      "constant": true,
      "inputs": [],
      "name": "owner",
      "outputs": [
        {
          "name": "",
          "type": "address"
        }
      ],
      "payable": false,
      "stateMutability": "view",
      "type": "function",
      "signature": "0x8da5cb5b"
    },
    {
      "constant": true,
      "inputs": [],
      "name": "freelancer",
      "outputs": [
        {
          "name": "",
          "type": "address"
        }
      ],
      "payable": false,
      "stateMutability": "view",
      "type": "function",
      "signature": "0xa37dda2c"
    },
    {
      "inputs": [
        {
          "name": "free",
          "type": "address"
        }
      ],
      "payable": false,
      "stateMutability": "nonpayable",
      "type": "constructor",
      "signature": "constructor"
    },
    {
      "anonymous": false,
      "inputs": [
        {
          "indexed": false,
          "name": "freelanceAddress",
          "type": "address"
        },
        {
          "indexed": false,
          "name": "amount",
          "type": "uint256"
        }
      ],
      "name": "LogRequested",
      "type": "event",
      "signature": "0xa59220e8ce84f8b7774562690a87d81e04c16158385c1d502fb0fda5b59a1ed6"
    },
    {
      "anonymous": false,
      "inputs": [
        {
          "indexed": false,
          "name": "ownerAddress",
          "type": "address"
        },
        {
          "indexed": false,
          "name": "amount",
          "type": "uint256"
        }
      ],
      "name": "LogApproved",
      "type": "event",
      "signature": "0xb82f83ffb1e9aab7b83419043a3f19436aa839e7df150cd35eb802fd12c9389f"
    },
    {
      "constant": false,
      "inputs": [
        {
          "name": "ipfsreference",
          "type": "string"
        },
        {
          "name": "valueRequested",
          "type": "uint256"
        },
        {
          "name": "ownerToPay",
          "type": "address"
        }
      ],
      "name": "createRequest",
      "outputs": [],
      "payable": false,
      "stateMutability": "nonpayable",
      "type": "function",
      "signature": "0x8a9cfd55"
    },
    {
      "constant": false,
      "inputs": [
        {
          "name": "index",
          "type": "uint256"
        }
      ],
      "name": "approveRequest",
      "outputs": [],
      "payable": true,
      "stateMutability": "payable",
      "type": "function",
      "signature": "0xd7d1bbdb"
    },
    {
      "constant": true,
      "inputs": [],
      "name": "getRequestsCount",
      "outputs": [
        {
          "name": "",
          "type": "uint256"
        }
      ],
      "payable": false,
      "stateMutability": "view",
      "type": "function",
      "signature": "0x3410452a"
    }
  ],
  "bytecode": "0x608060405234801561001057600080fd5b50604051602080610c838339810180604052602081101561003057600080fd5b810190808051906020019092919050505080600260006101000a81548173ffffffffffffffffffffffffffffffffffffffff021916908373ffffffffffffffffffffffffffffffffffffffff16021790555050610bf1806100926000396000f3fe608060405260043610610083576000357c0100000000000000000000000000000000000000000000000000000000900463ffffffff1680630a144391146100885780633410452a146100f157806381d12c581461011c5780638a9cfd55146102155780638da5cb5b14610307578063a37dda2c1461035e578063d7d1bbdb146103b5575b600080fd5b34801561009457600080fd5b506100d7600480360360208110156100ab57600080fd5b81019080803573ffffffffffffffffffffffffffffffffffffffff1690602001909291905050506103e3565b604051808215151515815260200191505060405180910390f35b3480156100fd57600080fd5b50610106610403565b6040518082815260200191505060405180910390f35b34801561012857600080fd5b506101556004803603602081101561013f57600080fd5b810190808035906020019092919050505061040f565b60405180806020018581526020018473ffffffffffffffffffffffffffffffffffffffff1673ffffffffffffffffffffffffffffffffffffffff16815260200183151515158152602001828103825286818151815260200191508051906020019080838360005b838110156101d75780820151818401526020810190506101bc565b50505050905090810190601f1680156102045780820380516001836020036101000a031916815260200191505b509550505050505060405180910390f35b34801561022157600080fd5b506103056004803603606081101561023857600080fd5b810190808035906020019064010000000081111561025557600080fd5b82018360208201111561026757600080fd5b8035906020019184600183028401116401000000008311171561028957600080fd5b91908080601f016020809104026020016040519081016040528093929190818152602001838380828437600081840152601f19601f82011690508083019250505050505050919291929080359060200190929190803573ffffffffffffffffffffffffffffffffffffffff169060200190929190505050610513565b005b34801561031357600080fd5b5061031c6107a6565b604051808273ffffffffffffffffffffffffffffffffffffffff1673ffffffffffffffffffffffffffffffffffffffff16815260200191505060405180910390f35b34801561036a57600080fd5b506103736107cc565b604051808273ffffffffffffffffffffffffffffffffffffffff1673ffffffffffffffffffffffffffffffffffffffff16815260200191505060405180910390f35b6103e1600480360360208110156103cb57600080fd5b81019080803590602001909291905050506107f2565b005b60016020528060005260406000206000915054906101000a900460ff1681565b60008080549050905090565b60008181548110151561041e57fe5b9060005260206000209060040201600091509050806000018054600181600116156101000203166002900480601f0160208091040260200160405190810160405280929190818152602001828054600181600116156101000203166002900480156104ca5780601f1061049f576101008083540402835291602001916104ca565b820191906000526020600020905b8154815290600101906020018083116104ad57829003601f168201915b5050505050908060010154908060020160009054906101000a900473ffffffffffffffffffffffffffffffffffffffff16908060020160149054906101000a900460ff16905084565b600260009054906101000a900473ffffffffffffffffffffffffffffffffffffffff1673ffffffffffffffffffffffffffffffffffffffff163373ffffffffffffffffffffffffffffffffffffffff1614151561056f57600080fd5b610577610adf565b6080604051908101604052808581526020018481526020018373ffffffffffffffffffffffffffffffffffffffff1681526020016000151581525090508060400151600360006101000a81548173ffffffffffffffffffffffffffffffffffffffff021916908373ffffffffffffffffffffffffffffffffffffffff160217905550600081908060018154018082558091505090600182039060005260206000209060040201600090919290919091506000820151816000019080519060200190610643929190610b20565b506020820151816001015560408201518160020160006101000a81548173ffffffffffffffffffffffffffffffffffffffff021916908373ffffffffffffffffffffffffffffffffffffffff16021790555060608201518160020160146101000a81548160ff0219169083151502179055505050507fb82f83ffb1e9aab7b83419043a3f19436aa839e7df150cd35eb802fd12c9389f338260200151604051808373ffffffffffffffffffffffffffffffffffffffff1673ffffffffffffffffffffffffffffffffffffffff1681526020018281526020019250505060405180910390a16001806000600360009054906101000a900473ffffffffffffffffffffffffffffffffffffffff1673ffffffffffffffffffffffffffffffffffffffff1673ffffffffffffffffffffffffffffffffffffffff16815260200190815260200160002060006101000a81548160ff02191690831515021790555050505050565b600360009054906101000a900473ffffffffffffffffffffffffffffffffffffffff1681565b600260009054906101000a900473ffffffffffffffffffffffffffffffffffffffff1681565b600360009054906101000a900473ffffffffffffffffffffffffffffffffffffffff1673ffffffffffffffffffffffffffffffffffffffff163373ffffffffffffffffffffffffffffffffffffffff1614151561084e57600080fd5b6000808281548110151561085e57fe5b9060005260206000209060040201905034816001015410151561090f576040517f08c379a00000000000000000000000000000000000000000000000000000000081526004018080602001828103825260268152602001807f6e6f7420656e6f7567682066756e64732073656e742077697468207472616e7381526020017f616374696f6e000000000000000000000000000000000000000000000000000081525060400191505060405180910390fd5b600160003373ffffffffffffffffffffffffffffffffffffffff1673ffffffffffffffffffffffffffffffffffffffff16815260200190815260200160002060009054906101000a900460ff16151561096757600080fd5b8060030160003373ffffffffffffffffffffffffffffffffffffffff1673ffffffffffffffffffffffffffffffffffffffff16815260200190815260200160002060009054906101000a900460ff161515156109c257600080fd5b8060020160149054906101000a900460ff161515156109e057600080fd5b600081600101549050600260009054906101000a900473ffffffffffffffffffffffffffffffffffffffff1673ffffffffffffffffffffffffffffffffffffffff166108fc829081150290604051600060405180830381858888f19350505050158015610a51573d6000803e3d6000fd5b507fb82f83ffb1e9aab7b83419043a3f19436aa839e7df150cd35eb802fd12c9389f3382604051808373ffffffffffffffffffffffffffffffffffffffff1673ffffffffffffffffffffffffffffffffffffffff1681526020018281526020019250505060405180910390a160018260020160146101000a81548160ff021916908315150217905550505050565b6080604051908101604052806060815260200160008152602001600073ffffffffffffffffffffffffffffffffffffffff1681526020016000151581525090565b828054600181600116156101000203166002900490600052602060002090601f016020900481019282601f10610b6157805160ff1916838001178555610b8f565b82800160010185558215610b8f579182015b82811115610b8e578251825591602001919060010190610b73565b5b509050610b9c9190610ba0565b5090565b610bc291905b80821115610bbe576000816000905550600101610ba6565b5090565b9056fea165627a7a7230582046055a391e58be1161f8ddedd6858bc4f803a3d1b88276a1a013136125d937670029",
  "source": "pragma solidity ^0.5.0;\n\n    //safe math library\n    //import \"github.com/OpenZeppelin/zeppelin-solidity/contracts/math/SafeMath.sol\";\n\n    //curcut breaker pattern - terminate contract (if bug)\n//contract Moral is Ownable{\n        \n //       function kill()\n //       {\n //               if(msg.sender == owner) selfdestruct(owner);\n //       }\n\n//}\n\ncontract FreelanceCampaign {\n    \n    struct Request {\n        string ipfsreference;\n        uint valueRequested;\n        address payable ownerToPay;\n        bool complete;\n        mapping(address => bool) approvals;\n    }\n\n    \n    Request[] public requests;\n    mapping(address => bool) public approvers;\n    address payable public freelancer;\n    address payable public owner;\n\n    event LogRequested(address freelanceAddress, uint amount);\n    event LogApproved(address ownerAddress, uint amount);\n\n    modifier freelanceronly() {\n        require(msg.sender == freelancer);\n        _;\n    }\n\n    modifier owneronly() {\n        require(msg.sender == owner);\n        _;\n    }\n\n    constructor (address payable free) public {\n        freelancer = free;\n    }\n    \n\n    function createRequest(string memory ipfsreference, uint valueRequested, address payable ownerToPay) public freelanceronly {\n        Request memory newRequest = Request({\n           ipfsreference: ipfsreference,\n           valueRequested: valueRequested,\n           ownerToPay: ownerToPay,\n           complete: false\n        });\n        \n        owner = newRequest.ownerToPay;\n        requests.push(newRequest);\n        emit LogApproved(msg.sender, newRequest.valueRequested);\n        approvers[owner] = true;\n\n    }\n\n\n    function approveRequest(uint index) public payable owneronly{\n        Request storage request = requests[index];\n        require(request.valueRequested < msg.value, \"not enough funds sent with transaction\");\n        require(approvers[msg.sender]);\n        require(!request.approvals[msg.sender]);\n        require(!request.complete);\n        \n        //is this msg.sender (owner) or is it the freelancer?\n        //request.approvals[msg.sender] = true;\n        uint amount = request.valueRequested;\n        freelancer.transfer(amount);\n        emit LogApproved(msg.sender, amount);\n        request.complete = true;\n    }\n\n\n    function getRequestsCount() public view returns (uint) {\n        return requests.length;\n    }\n}\n\n//when crafting transaction using web 3 js \n//https://ethereum.stackexchange.com/questions/38034/using-sendtransaction-in-web3-js",
  "sourcePath": "/Users/davidkobrosky/Desktop/Consensys Bootcamp/contracts/FreelanceCampaign.sol",
  "compiler": {
    "name": "solc",
    "version": "0.5.0+commit.1d4f565a.Emscripten.clang"
  },
  "schemaVersion": "3.0.3",
  "updatedAt": "2019-07-24T17:06:14.612Z",
  "devdoc": {
    "methods": {}
  },
  "userdoc": {
    "methods": {}
  }
}