{
  "contractName": "FreelanceCampaign",
  "abi": [
    {
      "constant": true,
      "inputs": [
        {
          "name": "",
          "type": "address"
        }
      ],
      "name": "approvers",
      "outputs": [
        {
          "name": "",
          "type": "bool"
        }
      ],
      "payable": false,
      "stateMutability": "view",
      "type": "function",
      "signature": "0x0a144391"
    },
    {
      "constant": true,
      "inputs": [
        {
          "name": "",
          "type": "uint256"
        }
      ],
      "name": "requests",
      "outputs": [
        {
          "name": "valueRequested",
          "type": "uint256"
        },
        {
          "name": "ownerToPay",
          "type": "address"
        },
        {
          "name": "complete",
          "type": "bool"
        }
      ],
      "payable": false,
      "stateMutability": "view",
      "type": "function",
      "signature": "0x81d12c58"
    },
    {
      "constant": true,
      "inputs": [],
      "name": "contractPaused",
      "outputs": [
        {
          "name": "",
          "type": "bool"
        }
      ],
      "payable": false,
      "stateMutability": "view",
      "type": "function",
      "signature": "0x8a67456a"
    },
    {
      "constant": true,
      "inputs": [],
      "name": "owner",
      "outputs": [
        {
          "name": "",
          "type": "address"
        }
      ],
      "payable": false,
      "stateMutability": "view",
      "type": "function",
      "signature": "0x8da5cb5b"
    },
    {
      "constant": true,
      "inputs": [],
      "name": "freelancer",
      "outputs": [
        {
          "name": "",
          "type": "address"
        }
      ],
      "payable": false,
      "stateMutability": "view",
      "type": "function",
      "signature": "0xa37dda2c"
    },
    {
      "inputs": [],
      "payable": false,
      "stateMutability": "nonpayable",
      "type": "constructor",
      "signature": "constructor"
    },
    {
      "anonymous": false,
      "inputs": [
        {
          "indexed": false,
          "name": "freelanceAddress",
          "type": "address"
        },
        {
          "indexed": false,
          "name": "amount",
          "type": "uint256"
        }
      ],
      "name": "LogRequested",
      "type": "event",
      "signature": "0xa59220e8ce84f8b7774562690a87d81e04c16158385c1d502fb0fda5b59a1ed6"
    },
    {
      "anonymous": false,
      "inputs": [
        {
          "indexed": false,
          "name": "ownerAddress",
          "type": "address"
        },
        {
          "indexed": false,
          "name": "amount",
          "type": "uint256"
        }
      ],
      "name": "LogApproved",
      "type": "event",
      "signature": "0xb82f83ffb1e9aab7b83419043a3f19436aa839e7df150cd35eb802fd12c9389f"
    },
    {
      "constant": false,
      "inputs": [
        {
          "name": "x",
          "type": "uint256"
        }
      ],
      "name": "set",
      "outputs": [],
      "payable": false,
      "stateMutability": "nonpayable",
      "type": "function",
      "signature": "0x60fe47b1"
    },
    {
      "constant": true,
      "inputs": [
        {
          "name": "index",
          "type": "uint256"
        }
      ],
      "name": "getRequestValue",
      "outputs": [
        {
          "name": "",
          "type": "uint256"
        }
      ],
      "payable": false,
      "stateMutability": "view",
      "type": "function",
      "signature": "0x519198ca"
    },
    {
      "constant": true,
      "inputs": [],
      "name": "get",
      "outputs": [
        {
          "name": "",
          "type": "uint256"
        }
      ],
      "payable": false,
      "stateMutability": "view",
      "type": "function",
      "signature": "0x6d4ce63c"
    },
    {
      "constant": false,
      "inputs": [],
      "name": "circuitBreaker",
      "outputs": [],
      "payable": false,
      "stateMutability": "nonpayable",
      "type": "function",
      "signature": "0x16efd941"
    },
    {
      "constant": false,
      "inputs": [
        {
          "name": "valueRequested",
          "type": "uint256"
        },
        {
          "name": "ownerToPay",
          "type": "address"
        }
      ],
      "name": "createRequest",
      "outputs": [],
      "payable": false,
      "stateMutability": "nonpayable",
      "type": "function",
      "signature": "0x2f51e58c"
    },
    {
      "constant": false,
      "inputs": [
        {
          "name": "index",
          "type": "uint256"
        }
      ],
      "name": "approveRequest",
      "outputs": [],
      "payable": true,
      "stateMutability": "payable",
      "type": "function",
      "signature": "0xd7d1bbdb"
    },
    {
      "constant": true,
      "inputs": [],
      "name": "getRequestsCount",
      "outputs": [
        {
          "name": "",
          "type": "uint256"
        }
      ],
      "payable": false,
      "stateMutability": "view",
      "type": "function",
      "signature": "0x3410452a"
    }
  ],
  "bytecode": "0x60806040526000600460146101000a81548160ff02191690831515021790555034801561002b57600080fd5b5033600360006101000a81548173ffffffffffffffffffffffffffffffffffffffff021916908373ffffffffffffffffffffffffffffffffffffffff160217905550610bf48061007c6000396000f3fe6080604052600436106100ba576000357c0100000000000000000000000000000000000000000000000000000000900463ffffffff1680630a144391146100bf57806316efd941146101285780632f51e58c1461013f5780633410452a1461019a578063519198ca146101c557806360fe47b1146102145780636d4ce63c1461024f57806381d12c581461027a5780638a67456a146103075780638da5cb5b14610336578063a37dda2c1461038d578063d7d1bbdb146103e4575b600080fd5b3480156100cb57600080fd5b5061010e600480360360208110156100e257600080fd5b81019080803573ffffffffffffffffffffffffffffffffffffffff169060200190929190505050610412565b604051808215151515815260200191505060405180910390f35b34801561013457600080fd5b5061013d610432565b005b34801561014b57600080fd5b506101986004803603604081101561016257600080fd5b8101908080359060200190929190803573ffffffffffffffffffffffffffffffffffffffff1690602001909291905050506104e8565b005b3480156101a657600080fd5b506101af610794565b6040518082815260200191505060405180910390f35b3480156101d157600080fd5b506101fe600480360360208110156101e857600080fd5b81019080803590602001909291905050506107a1565b6040518082815260200191505060405180910390f35b34801561022057600080fd5b5061024d6004803603602081101561023757600080fd5b81019080803590602001909291905050506107d6565b005b34801561025b57600080fd5b506102646107e0565b6040518082815260200191505060405180910390f35b34801561028657600080fd5b506102b36004803603602081101561029d57600080fd5b81019080803590602001909291905050506107e9565b604051808481526020018373ffffffffffffffffffffffffffffffffffffffff1673ffffffffffffffffffffffffffffffffffffffff16815260200182151515158152602001935050505060405180910390f35b34801561031357600080fd5b5061031c61084f565b604051808215151515815260200191505060405180910390f35b34801561034257600080fd5b5061034b610862565b604051808273ffffffffffffffffffffffffffffffffffffffff1673ffffffffffffffffffffffffffffffffffffffff16815260200191505060405180910390f35b34801561039957600080fd5b506103a2610888565b604051808273ffffffffffffffffffffffffffffffffffffffff1673ffffffffffffffffffffffffffffffffffffffff16815260200191505060405180910390f35b610410600480360360208110156103fa57600080fd5b81019080803590602001909291905050506108ae565b005b60026020528060005260406000206000915054906101000a900460ff1681565b600360009054906101000a900473ffffffffffffffffffffffffffffffffffffffff1673ffffffffffffffffffffffffffffffffffffffff163373ffffffffffffffffffffffffffffffffffffffff1614151561048e57600080fd5b60001515600460149054906101000a900460ff16151514156104ca576001600460146101000a81548160ff0219169083151502179055506104e6565b6000600460146101000a81548160ff0219169083151502179055505b565b600360009054906101000a900473ffffffffffffffffffffffffffffffffffffffff1673ffffffffffffffffffffffffffffffffffffffff163373ffffffffffffffffffffffffffffffffffffffff1614151561054457600080fd5b60001515600460149054906101000a900460ff16151514151561056657600080fd5b61056e610b8e565b606060405190810160405280610595670de0b6b3a764000086610ac190919063ffffffff16565b81526020018373ffffffffffffffffffffffffffffffffffffffff1681526020016000151581525090508060200151600460006101000a81548173ffffffffffffffffffffffffffffffffffffffff021916908373ffffffffffffffffffffffffffffffffffffffff160217905550600181908060018154018082558091505090600182039060005260206000209060030201600090919290919091506000820151816000015560208201518160010160006101000a81548173ffffffffffffffffffffffffffffffffffffffff021916908373ffffffffffffffffffffffffffffffffffffffff16021790555060408201518160010160146101000a81548160ff0219169083151502179055505050507fb82f83ffb1e9aab7b83419043a3f19436aa839e7df150cd35eb802fd12c9389f338260000151604051808373ffffffffffffffffffffffffffffffffffffffff1673ffffffffffffffffffffffffffffffffffffffff1681526020018281526020019250505060405180910390a1600160026000600460009054906101000a900473ffffffffffffffffffffffffffffffffffffffff1673ffffffffffffffffffffffffffffffffffffffff1673ffffffffffffffffffffffffffffffffffffffff16815260200190815260200160002060006101000a81548160ff021916908315150217905550505050565b6000600180549050905090565b6000806001838154811015156107b357fe5b906000526020600020906003020190506000816000015490508092505050919050565b8060008190555050565b60008054905090565b6001818154811015156107f857fe5b90600052602060002090600302016000915090508060000154908060010160009054906101000a900473ffffffffffffffffffffffffffffffffffffffff16908060010160149054906101000a900460ff16905083565b600460149054906101000a900460ff1681565b600460009054906101000a900473ffffffffffffffffffffffffffffffffffffffff1681565b600360009054906101000a900473ffffffffffffffffffffffffffffffffffffffff1681565b60001515600460149054906101000a900460ff1615151415156108d057600080fd5b60006001828154811015156108e157fe5b90600052602060002090600302019050600260003373ffffffffffffffffffffffffffffffffffffffff1673ffffffffffffffffffffffffffffffffffffffff16815260200190815260200160002060009054906101000a900460ff16151561094957600080fd5b8060020160003373ffffffffffffffffffffffffffffffffffffffff1673ffffffffffffffffffffffffffffffffffffffff16815260200190815260200160002060009054906101000a900460ff161515156109a457600080fd5b8060010160149054906101000a900460ff161515156109c257600080fd5b600081600001549050600360009054906101000a900473ffffffffffffffffffffffffffffffffffffffff1673ffffffffffffffffffffffffffffffffffffffff166108fc829081150290604051600060405180830381858888f19350505050158015610a33573d6000803e3d6000fd5b507fb82f83ffb1e9aab7b83419043a3f19436aa839e7df150cd35eb802fd12c9389f3382604051808373ffffffffffffffffffffffffffffffffffffffff1673ffffffffffffffffffffffffffffffffffffffff1681526020018281526020019250505060405180910390a160018260010160146101000a81548160ff021916908315150217905550505050565b600080831415610ad45760009050610b88565b60008284029050828482811515610ae757fe5b04141515610b83576040517f08c379a00000000000000000000000000000000000000000000000000000000081526004018080602001828103825260218152602001807f536166654d6174683a206d756c7469706c69636174696f6e206f766572666c6f81526020017f770000000000000000000000000000000000000000000000000000000000000081525060400191505060405180910390fd5b809150505b92915050565b60606040519081016040528060008152602001600073ffffffffffffffffffffffffffffffffffffffff168152602001600015158152509056fea165627a7a72305820277e2472685c0e1e2ebe465c433d42c7a3fb3b771f7c838fc5141f70d81b27c00029",
  "source": "pragma solidity ^0.5.0;\n\n//safe math library\nimport \"../client/node_modules/zeppelin-solidity/contracts/math/SafeMath.sol\";\n\n\ncontract FreelanceCampaign {\n    \n    struct Request {\n        //string ipfsreference;\n        uint valueRequested;\n        address payable ownerToPay;\n        bool complete;\n        mapping(address => bool) approvals;\n    }\n\n    using SafeMath for uint;\n    uint storedData;\n    Request[] public requests;\n    mapping(address => bool) public approvers;\n    address payable public freelancer;\n    address payable public owner;\n    bool public contractPaused = false; \n\n\n    event LogRequested(address freelanceAddress, uint amount);\n    event LogApproved(address ownerAddress, uint amount);\n\n    modifier freelanceronly() {\n        require(msg.sender == freelancer);\n        _;\n    }\n\n    // If the contract is paused, stop the modified function\n    // Attach this modifier to all public functions\n    modifier checkIfPaused() {\n        require(contractPaused == false);\n        _;\n    }\n\n\n    constructor() public {\n        freelancer = msg.sender;\n    }\n\n    function set(uint x) public {\n        storedData = x;\n    }\n\n    function getRequestValue(uint index) public view returns (uint){\n        Request storage request = requests[index];\n        uint value = request.valueRequested;\n        return value;\n    }\n\n    function get() public view returns (uint) {\n     return storedData;\n    }\n\n    function circuitBreaker() public freelanceronly { // onlyfreelancer can call\n        if (contractPaused == false) { \n            contractPaused = true; \n        }\n        else { \n            contractPaused = false; \n        }\n    }   \n    \n    function createRequest(uint valueRequested, address payable ownerToPay) public freelanceronly checkIfPaused{\n        Request memory newRequest = Request({\n            //converts to Ether\n           valueRequested: valueRequested.mul(1000000000000000000),\n           ownerToPay: ownerToPay,\n           complete: false\n        });\n        \n        owner = newRequest.ownerToPay;\n        requests.push(newRequest);\n        emit LogApproved(msg.sender, newRequest.valueRequested);\n        approvers[owner] = true;\n\n    }\n\n\n    function approveRequest(uint index) public payable checkIfPaused{\n        Request storage request = requests[index];\n        require(approvers[msg.sender]);\n        require(!request.approvals[msg.sender]);\n        require(!request.complete);\n        \n        //is this msg.sender (owner) or is it the freelancer?\n        //request.approvals[msg.sender] = true;\n        uint amount = request.valueRequested;\n        freelancer.transfer(amount);\n        emit LogApproved(msg.sender, amount);\n        request.complete = true;\n    }\n\n\n    function getRequestsCount() public view returns (uint) {\n        return requests.length;\n    }\n}\n\n//when crafting transaction using web 3 js \n//https://ethereum.stackexchange.com/questions/38034/using-sendtransaction-in-web3-js",
  "sourcePath": "/Users/davidkobrosky/Desktop/Consensys Bootcamp/contracts/FreelanceCampaign.sol",
  "compiler": {
    "name": "solc",
    "version": "0.5.0+commit.1d4f565a.Emscripten.clang"
  },
  "schemaVersion": "3.0.3",
  "updatedAt": "2019-07-30T17:53:11.693Z",
  "devdoc": {
    "methods": {}
  },
  "userdoc": {
    "methods": {}
  }
}