{
  "contractName": "FreelanceCampaign",
  "abi": [
    {
      "constant": true,
      "inputs": [
        {
          "name": "",
          "type": "address"
        }
      ],
      "name": "approvers",
      "outputs": [
        {
          "name": "",
          "type": "bool"
        }
      ],
      "payable": false,
      "stateMutability": "view",
      "type": "function",
      "signature": "0x0a144391"
    },
    {
      "constant": true,
      "inputs": [
        {
          "name": "",
          "type": "uint256"
        }
      ],
      "name": "requests",
      "outputs": [
        {
          "name": "valueRequested",
          "type": "uint256"
        },
        {
          "name": "ownerToPay",
          "type": "address"
        },
        {
          "name": "complete",
          "type": "bool"
        }
      ],
      "payable": false,
      "stateMutability": "view",
      "type": "function",
      "signature": "0x81d12c58"
    },
    {
      "constant": true,
      "inputs": [],
      "name": "owner",
      "outputs": [
        {
          "name": "",
          "type": "address"
        }
      ],
      "payable": false,
      "stateMutability": "view",
      "type": "function",
      "signature": "0x8da5cb5b"
    },
    {
      "constant": true,
      "inputs": [],
      "name": "freelancer",
      "outputs": [
        {
          "name": "",
          "type": "address"
        }
      ],
      "payable": false,
      "stateMutability": "view",
      "type": "function",
      "signature": "0xa37dda2c"
    },
    {
      "inputs": [],
      "payable": false,
      "stateMutability": "nonpayable",
      "type": "constructor",
      "signature": "constructor"
    },
    {
      "anonymous": false,
      "inputs": [
        {
          "indexed": false,
          "name": "freelanceAddress",
          "type": "address"
        },
        {
          "indexed": false,
          "name": "amount",
          "type": "uint256"
        }
      ],
      "name": "LogRequested",
      "type": "event",
      "signature": "0xa59220e8ce84f8b7774562690a87d81e04c16158385c1d502fb0fda5b59a1ed6"
    },
    {
      "anonymous": false,
      "inputs": [
        {
          "indexed": false,
          "name": "ownerAddress",
          "type": "address"
        },
        {
          "indexed": false,
          "name": "amount",
          "type": "uint256"
        }
      ],
      "name": "LogApproved",
      "type": "event",
      "signature": "0xb82f83ffb1e9aab7b83419043a3f19436aa839e7df150cd35eb802fd12c9389f"
    },
    {
      "constant": false,
      "inputs": [
        {
          "name": "x",
          "type": "uint256"
        }
      ],
      "name": "set",
      "outputs": [],
      "payable": false,
      "stateMutability": "nonpayable",
      "type": "function",
      "signature": "0x60fe47b1"
    },
    {
      "constant": true,
      "inputs": [
        {
          "name": "index",
          "type": "uint256"
        }
      ],
      "name": "getRequestValue",
      "outputs": [
        {
          "name": "",
          "type": "uint256"
        }
      ],
      "payable": false,
      "stateMutability": "view",
      "type": "function",
      "signature": "0x519198ca"
    },
    {
      "constant": true,
      "inputs": [],
      "name": "get",
      "outputs": [
        {
          "name": "",
          "type": "uint256"
        }
      ],
      "payable": false,
      "stateMutability": "view",
      "type": "function",
      "signature": "0x6d4ce63c"
    },
    {
      "constant": false,
      "inputs": [
        {
          "name": "valueRequested",
          "type": "uint256"
        },
        {
          "name": "ownerToPay",
          "type": "address"
        }
      ],
      "name": "createRequest",
      "outputs": [],
      "payable": false,
      "stateMutability": "nonpayable",
      "type": "function",
      "signature": "0x2f51e58c"
    },
    {
      "constant": false,
      "inputs": [
        {
          "name": "index",
          "type": "uint256"
        }
      ],
      "name": "approveRequest",
      "outputs": [],
      "payable": true,
      "stateMutability": "payable",
      "type": "function",
      "signature": "0xd7d1bbdb"
    },
    {
      "constant": true,
      "inputs": [],
      "name": "getRequestsCount",
      "outputs": [
        {
          "name": "",
          "type": "uint256"
        }
      ],
      "payable": false,
      "stateMutability": "view",
      "type": "function",
      "signature": "0x3410452a"
    }
  ],
  "bytecode": "0x608060405234801561001057600080fd5b5033600360006101000a81548173ffffffffffffffffffffffffffffffffffffffff021916908373ffffffffffffffffffffffffffffffffffffffff160217905550610a46806100616000396000f3fe6080604052600436106100a4576000357c0100000000000000000000000000000000000000000000000000000000900463ffffffff1680630a144391146100a95780632f51e58c146101125780633410452a1461016d578063519198ca1461019857806360fe47b1146101e75780636d4ce63c1461022257806381d12c581461024d5780638da5cb5b146102da578063a37dda2c14610331578063d7d1bbdb14610388575b600080fd5b3480156100b557600080fd5b506100f8600480360360208110156100cc57600080fd5b81019080803573ffffffffffffffffffffffffffffffffffffffff1690602001909291905050506103b6565b604051808215151515815260200191505060405180910390f35b34801561011e57600080fd5b5061016b6004803603604081101561013557600080fd5b8101908080359060200190929190803573ffffffffffffffffffffffffffffffffffffffff1690602001909291905050506103d6565b005b34801561017957600080fd5b50610182610646565b6040518082815260200191505060405180910390f35b3480156101a457600080fd5b506101d1600480360360208110156101bb57600080fd5b8101908080359060200190929190505050610653565b6040518082815260200191505060405180910390f35b3480156101f357600080fd5b506102206004803603602081101561020a57600080fd5b8101908080359060200190929190505050610688565b005b34801561022e57600080fd5b50610237610692565b6040518082815260200191505060405180910390f35b34801561025957600080fd5b506102866004803603602081101561027057600080fd5b810190808035906020019092919050505061069b565b604051808481526020018373ffffffffffffffffffffffffffffffffffffffff1673ffffffffffffffffffffffffffffffffffffffff16815260200182151515158152602001935050505060405180910390f35b3480156102e657600080fd5b506102ef610701565b604051808273ffffffffffffffffffffffffffffffffffffffff1673ffffffffffffffffffffffffffffffffffffffff16815260200191505060405180910390f35b34801561033d57600080fd5b50610346610727565b604051808273ffffffffffffffffffffffffffffffffffffffff1673ffffffffffffffffffffffffffffffffffffffff16815260200191505060405180910390f35b6103b46004803603602081101561039e57600080fd5b810190808035906020019092919050505061074d565b005b60026020528060005260406000206000915054906101000a900460ff1681565b600360009054906101000a900473ffffffffffffffffffffffffffffffffffffffff1673ffffffffffffffffffffffffffffffffffffffff163373ffffffffffffffffffffffffffffffffffffffff1614151561043257600080fd5b61043a6109e0565b6060604051908101604052808481526020018373ffffffffffffffffffffffffffffffffffffffff1681526020016000151581525090508060200151600460006101000a81548173ffffffffffffffffffffffffffffffffffffffff021916908373ffffffffffffffffffffffffffffffffffffffff160217905550600181908060018154018082558091505090600182039060005260206000209060030201600090919290919091506000820151816000015560208201518160010160006101000a81548173ffffffffffffffffffffffffffffffffffffffff021916908373ffffffffffffffffffffffffffffffffffffffff16021790555060408201518160010160146101000a81548160ff0219169083151502179055505050507fb82f83ffb1e9aab7b83419043a3f19436aa839e7df150cd35eb802fd12c9389f338260000151604051808373ffffffffffffffffffffffffffffffffffffffff1673ffffffffffffffffffffffffffffffffffffffff1681526020018281526020019250505060405180910390a1600160026000600460009054906101000a900473ffffffffffffffffffffffffffffffffffffffff1673ffffffffffffffffffffffffffffffffffffffff1673ffffffffffffffffffffffffffffffffffffffff16815260200190815260200160002060006101000a81548160ff021916908315150217905550505050565b6000600180549050905090565b60008060018381548110151561066557fe5b906000526020600020906003020190506000816000015490508092505050919050565b8060008190555050565b60008054905090565b6001818154811015156106aa57fe5b90600052602060002090600302016000915090508060000154908060010160009054906101000a900473ffffffffffffffffffffffffffffffffffffffff16908060010160149054906101000a900460ff16905083565b600460009054906101000a900473ffffffffffffffffffffffffffffffffffffffff1681565b600360009054906101000a900473ffffffffffffffffffffffffffffffffffffffff1681565b600060018281548110151561075e57fe5b9060005260206000209060030201905034816000015411151515610810576040517f08c379a00000000000000000000000000000000000000000000000000000000081526004018080602001828103825260268152602001807f6e6f7420656e6f7567682066756e64732073656e742077697468207472616e7381526020017f616374696f6e000000000000000000000000000000000000000000000000000081525060400191505060405180910390fd5b600260003373ffffffffffffffffffffffffffffffffffffffff1673ffffffffffffffffffffffffffffffffffffffff16815260200190815260200160002060009054906101000a900460ff16151561086857600080fd5b8060020160003373ffffffffffffffffffffffffffffffffffffffff1673ffffffffffffffffffffffffffffffffffffffff16815260200190815260200160002060009054906101000a900460ff161515156108c357600080fd5b8060010160149054906101000a900460ff161515156108e157600080fd5b600081600001549050600360009054906101000a900473ffffffffffffffffffffffffffffffffffffffff1673ffffffffffffffffffffffffffffffffffffffff166108fc829081150290604051600060405180830381858888f19350505050158015610952573d6000803e3d6000fd5b507fb82f83ffb1e9aab7b83419043a3f19436aa839e7df150cd35eb802fd12c9389f3382604051808373ffffffffffffffffffffffffffffffffffffffff1673ffffffffffffffffffffffffffffffffffffffff1681526020018281526020019250505060405180910390a160018260010160146101000a81548160ff021916908315150217905550505050565b60606040519081016040528060008152602001600073ffffffffffffffffffffffffffffffffffffffff168152602001600015158152509056fea165627a7a72305820d562faded9986c8a8c6143cea6897f7ead3f97c61dbe2541eed779096b3ed4aa0029",
  "source": "pragma solidity ^0.5.0;\n\n    //safe math library\n    //import \"github.com/OpenZeppelin/zeppelin-solidity/contracts/math/SafeMath.sol\";\n\n    //curcut breaker pattern - terminate contract (if bug)\n//contract Moral is Ownable{\n        \n //       function kill()\n //       {\n //               if(msg.sender == owner) selfdestruct(owner);\n //       }\n\n//}\n\ncontract FreelanceCampaign {\n    \n    struct Request {\n        //string ipfsreference;\n        uint valueRequested;\n        address payable ownerToPay;\n        bool complete;\n        mapping(address => bool) approvals;\n    }\n\n    uint storedData;\n    Request[] public requests;\n    mapping(address => bool) public approvers;\n    address payable public freelancer;\n    address payable public owner;\n\n    event LogRequested(address freelanceAddress, uint amount);\n    event LogApproved(address ownerAddress, uint amount);\n\n    modifier freelanceronly() {\n        require(msg.sender == freelancer);\n        _;\n    }\n\n    //modifier owneronly() {\n        ///require(msg.sender == owner);\n       //_;\n   // }\n\n    constructor() public {\n        freelancer = msg.sender;\n    }\n\n    function set(uint x) public {\n        storedData = x;\n    }\n\n    function getRequestValue(uint index) public view returns (uint){\n        Request storage request = requests[index];\n        uint value = request.valueRequested;\n        return value;\n    }\n\n    function get() public view returns (uint) {\n     return storedData;\n    }\n    \n//took out string memory ipfsreference from parameter\n    function createRequest(uint valueRequested, address payable ownerToPay) public freelanceronly {\n        Request memory newRequest = Request({\n           //ipfsreference: ipfsreference,\n           valueRequested: valueRequested,\n           ownerToPay: ownerToPay,\n           complete: false\n        });\n        \n        owner = newRequest.ownerToPay;\n        requests.push(newRequest);\n        emit LogApproved(msg.sender, newRequest.valueRequested);\n        approvers[owner] = true;\n\n    }\n\n\n    function approveRequest(uint index) public payable {\n        Request storage request = requests[index];\n        require(request.valueRequested <= msg.value, \"not enough funds sent with transaction\");\n        require(approvers[msg.sender]);\n        require(!request.approvals[msg.sender]);\n        require(!request.complete);\n        \n        //is this msg.sender (owner) or is it the freelancer?\n        //request.approvals[msg.sender] = true;\n        uint amount = request.valueRequested;\n        freelancer.transfer(amount);\n        emit LogApproved(msg.sender, amount);\n        request.complete = true;\n    }\n\n\n    function getRequestsCount() public view returns (uint) {\n        return requests.length;\n    }\n}\n\n//when crafting transaction using web 3 js \n//https://ethereum.stackexchange.com/questions/38034/using-sendtransaction-in-web3-js",
  "sourcePath": "/Users/davidkobrosky/Desktop/Consensys Bootcamp/contracts/FreelanceCampaign.sol",
  "compiler": {
    "name": "solc",
    "version": "0.5.0+commit.1d4f565a.Emscripten.clang"
  },
  "schemaVersion": "3.0.3",
  "updatedAt": "2019-07-25T19:48:38.695Z",
  "devdoc": {
    "methods": {}
  },
  "userdoc": {
    "methods": {
      "constructor": "require(msg.sender == owner);"
    }
  }
}